:100000005CC000007FC000007DC000007BC000001D
:1000100079C0000077C0000075C0000073C0000008
:1000200071C000006FC000006DC000006BC0000018
:1000300069C000003AC2000065C0000063C0000053
:10004000DEC300005FC0000076C60000A6C6000048
:1000500059C0000057C0000055C0000053C0000048
:1000600051C000004FC00000000000080002010065
:100070000003040700000000000000000102040863
:100080001020408001020408102001020408102002
:10009000040404040404040402020202020203032E
:1000A0000303030300000000250028002B000000CC
:1000B0000000240027002A00F20611241FBECFEF03
:1000C000D8E0DEBFCDBF11E0A0E0B1E0ECEEFEE095
:1000D00002C005900D92AC31B107D9F721E0ACE137
:1000E000B1E001C01D92AA3DB207E1F710E0CDE5F5
:1000F000D0E003C02197FE01F1D6CC35D107D1F76E
:1001000036D2F2C67DCFCF92DF92EF92FF92CF939D
:10011000882331F16A017B01CFEFC80F20E030E086
:10012000A901CB01B6015AD287FF10C0C701B601A1
:1001300090585DD29B01AC016C2F70E090E080E0A4
:10014000CF91FF90EF90DF90CF90ACC0C701B60188
:1001500049D28C2FCF91FF90EF90DF90CF90D4C3F6
:10016000CF91FF90EF90DF90CF9008950F931F9362
:100170008B019C0183E036952795179507958A9505
:10018000D1F7045E1E4F462F477021E030E0F901A1
:1001900002C0EE0FFF1F4A95E2F7AF01F801208180
:1001A0002423CB010196211102C090E080E01F9131
:1001B0000F9108950F931F938B019C0183E0369557
:1001C0002795179507958A95D1F7677081E090E09C
:1001D00001C0880F6A95EAF7F801E45EFE4F2081BE
:1001E000452B31F48095822380831F910F910895D0
:1001F000822BFACF2F923F924F925F926F927F9213
:100200008F929F92AF92BF92CF92DF92EF92FF9226
:100210000F931F93CF93DF93D62EC72E782E692E80
:1002200049015A01280161E08D2DF2D3CD2DDC2D3D
:100230008E010F5F1F4FA8016D2D7C2D872D962DF0
:10024000B9DF20E030E0A901C201B70149D2181698
:1002500054F4C201B701CBD12B01C501B401C7D100
:10026000A201CE0122D0C801DF91CF911F910F9141
:10027000FF90EF90DF90CF90BF90AF909F908F90C6
:100280007F906F905F904F903F902F9008958823BC
:1002900041F08150682F70E090E080E050E040E055
:1002A00089CF0895862FB9012FC39C01FC01E8591D
:1002B000FF4FE491E33059F138F4E13009F1E230D5
:1002C00019F160E0822FE0C3E730C1F1E83009F4B2
:1002D00041C0E430B1F7809180008C7F82608093D0
:1002E000800090918100907E9061692B60938100E5
:1002F00050938700409386008091800080621BC0ED
:1003000084B5806884BDDDCF84B58062FBCF8091E9
:1003100080008C7F82608093800090918100907E2D
:100320009061692B60938100509387004093860011
:1003300080918000806880938000C3CF8091B0005E
:1003400080688093B0008091B100887F682B6093B3
:10035000B100B7CF8091B0008062F3CFCF92DF922F
:10036000EF92FF92CF93DF9365E070E080E090E042
:10037000FDDEEC019093D7018093D601209104011A
:1003800030910501409106015091070160910001F3
:10039000709101018091020190910301A5D16B013F
:1003A0007C0120E030E04FE753E418D187FF15C00F
:1003B00020E030E0A901C701B60192D118161CF067
:1003C000C12CD12C7601B701A601CE01DF91CF91CE
:1003D000FF90EF90DF90CF9096CEC12CD12C8FE77D
:1003E000E82E83E4F82EEFCFEF92FF920F931F9346
:1003F000CF93DF93C0EDD1E018821D8281E090E0C1
:10040000A0E0B0E089839A83AB83BC83E12CF12C1C
:100410008701A801970165E070E080E090E0EADEE6
:100420009F838E8381E08D83DF91CF911F910F9108
:10043000FF90EF9008958091D00181112AC081E052
:100440008093D0018091D1019091D201A091D301EC
:10045000B091D4010197A105B105D9F48091D501DE
:100460008823B9F065E070E080E090E07FDE909353
:10047000D7018093D60140E050E0BA0144DE65E048
:1004800070E080E090E072DE9093D7018093D60117
:10049000FECE089540E855E260E070E090E080E034
:1004A00000C026E083E391E0E6C31F920F920FB6EF
:1004B0000F9211242F933F934F935F936F937F93EA
:1004C0008F939F93AF93BF93EF93FF938BEC93EF37
:1004D000909385008093840032D0FF91EF91BF917B
:1004E000AF919F918F917F916F915F914F913F91CC
:1004F0002F910F900FBE0F901F9018958BEC93EFDC
:100500009093850080938400AFE6B0E08C918E7F5D
:100510008C93E0E8F0E080818C7F8083E1E8F0E07C
:100520008081877E808380818560808380818D7FCC
:1005300080838C9181608C93089581E008958091EF
:10054000270191E0980F90932701882349F021E03B
:1005500030E03093290120932801809327010895EA
:100560007894FCDEF894809127018150F6CFCF93E8
:10057000DF931092D9011092D8018BD18BDFC091FB
:100580000801D0910901198218822EDFF894B6DF94
:1005900081E028813981232B09F080E08093D80104
:1005A000789478948091D801811107C044DFF89441
:1005B00090E080E0DF91CF91089581E0288139813A
:1005C000232B09F480E08093D9019091D90181E037
:1005D000911180E08093D801B0DFE4CF34D008F4EB
:1005E00081E0089504D06894B11174C0089557D083
:1005F00088F09F5790F0B92F9927B751A0F0D1F00C
:10060000660F771F881F991F1AF0BA95C9F712C095
:10061000B13081F05ED0B1E008955BC0672F782FD4
:100620008827B85F39F0B93FCCF386957795679501
:10063000B395D9F73EF490958095709561957F4F6D
:100640008F4F9F4F0895990F0008550FAA0BE0E8B0
:10065000FEEF16161706E807F907C0F01216130684
:10066000E407F50798F0621B730B840B950B39F4C4
:100670000A2661F0232B242B252B21F408950A262A
:1006800009F4A140A6958FEF811D811D089557FDA6
:100690009058440F551F59F05F3F71F04795880FF0
:1006A00097FB991F61F09F3F79F087950895121687
:1006B00013061406551FF2CF4695F1DF08C0161633
:1006C00017061806991FF1CF8695710561050894E4
:1006D0000895E894BB2766277727CB0197F90895FB
:1006E000B2DF08F48FEF08950BD078C069D028F0FE
:1006F0006ED018F0952309F05AC05FC01124EACFDC
:10070000C6DFA0F3959FD1F3950F50E0551F629F70
:10071000F001729FBB27F00DB11D639FAA27F00D5A
:10072000B11DAA1F649F6627B00DA11D661F829F81
:100730002227B00DA11D621F739FB00DA11D621F66
:10074000839FA00D611D221F749F3327A00D611D83
:10075000231F849F600D211D822F762F6A2F112465
:100760009F5750408AF0E1F088234AF0EE0FFF1FB8
:10077000BB1F661F771F881F91505040A9F79E3FEF
:10078000510570F014C0A6CF5F3FECF3983EDCF348
:10079000869577956795B795F795E7959F5FC1F72C
:1007A000FE2B880F911D9695879597F9089597F9D7
:1007B0009F6780E870E060E008959FEF80EC089507
:1007C00000240A9416161706180609060895002430
:1007D0000A9412161306140605060895092E0394AA
:1007E000000C11F4882352F0BB0F40F4BF2B11F41E
:1007F00060FF04C06F5F7F4F8F4F9F4F08951F9220
:100800000F920FB60F9211242F933F938F939F93C4
:10081000AF93BF9380912B0190912C01A0912D015A
:10082000B0912E0130912A0123E0230F2D3758F586
:100830000196A11DB11D20932A0180932B01909355
:100840002C01A0932D01B0932E0180912F01909146
:100850003001A0913101B09132010196A11DB11D6D
:1008600080932F0190933001A0933101B093320116
:10087000BF91AF919F918F913F912F910F900FBE9C
:100880000F901F90189526E8230F0296A11DB11D09
:10089000D2CF789484B5826084BD84B5816084BDF4
:1008A00085B5826085BD85B5816085BDEEE6F0E0E9
:1008B000808181608083E1E8F0E010828081826045
:1008C0008083808181608083E0E8F0E080818160C6
:1008D0008083E1EBF0E0808184608083E0EBF0E0F6
:1008E000808181608083EAE7F0E08081846080839A
:1008F0008081826080838081816080838081806844
:1009000080831092C10008951F93CF93DF93182F17
:10091000EB0161E07DD0209731F460E0812FDF9121
:10092000CF911F91B1C0CF3FD10511F461E0F6CF57
:10093000E12FF0E0E859FF4FE491E33031F140F46A
:10094000E130B1F0E230E1F0C038D1057CF7E5CF1D
:10095000E73029F1E83059F1E430B1F780918000B7
:10096000806280938000D0938B00C0938A0004C083
:1009700084B5806884BDC7BDDF91CF911F91089574
:1009800084B5806284BDC8BDF7CF80918000806847
:1009900080938000D0938900C0938800EDCF809130
:1009A000B00080688093B000C093B300E5CF809121
:1009B000B00080628093B000C093B400DDCF83307C
:1009C00081F028F4813099F08230A9F008958730C1
:1009D000A9F08830C9F08430B1F4809180008F7D17
:1009E00003C0809180008F7780938000089584B544
:1009F0008F7784BD089584B58F7DFBCF8091B00043
:100A00008F778093B00008958091B0008F7DF9CFEB
:100A1000CF93DF9390E0FC01E458FF4F249180577F
:100A20009F4FFC0184918823C9F090E0880F991FA3
:100A3000FC01E255FF4FA591B491FC01EC55FF4F2D
:100A4000C591D49161110DC09FB7F8948C912095F8
:100A500082238C938881282328839FBFDF91CF91A5
:100A60000895623051F49FB7F8943C91822F80959D
:100A700083238C93E8812E2BEFCF8FB7F894EC91E2
:100A80002E2B2C938FBFEACF1F93CF93DF93282F6A
:100A900030E0F901E859FF4F8491F901E458FF4F24
:100AA000D491F901E057FF4FC491CC23A1F0162F48
:100AB000811185DFEC2FF0E0EE0FFF1FEC55FF4FAB
:100AC000A591B4918FB7F894EC91111108C0D0950D
:100AD000DE23DC938FBFDF91CF911F910895DE2B32
:100AE000F8CFFC01918D228D892F90E0805C9F4F83
:100AF000821B91098F7399270895FC01918D828D36
:100B0000981731F0828DE80FF11D858D90E00895E2
:100B10008FEF9FEF0895FC01918D828D981761F002
:100B2000A28DAE0FBF2FB11D5D968C91928D9F5FF0
:100B30009F73928F90E008958FEF9FEF0895FC01CF
:100B4000538D448D252F30E0842F90E0821B930B32
:100B5000541710F0CF96089501970895FC01A48DC5
:100B6000A80FB92FB11DA35ABF4F2C91848D90E0CF
:100B700001968F739927848FA689B7892C93A089B2
:100B8000B1898C91837080648C93938D848D98133C
:100B900006C00288F389E02D80818F7D80830895CF
:100BA000CF93DF93EC01888D8823B1F0AA89BB89AC
:100BB000E889F9898C9185FD03C0808186FD0CC090
:100BC0000FB607FCF7CF8C9185FFF2CF808185FFB0
:100BD000EDCFCE01C3DFEACFDF91CF910895EF9241
:100BE000FF920F931F93CF93DF93EC0181E0888FE7
:100BF0009B8D8C8D98131AC0E889F989808185FFB7
:100C000015C09FB7F894EE89FF896083E889F98958
:100C100080818370806480839FBF81E090E0DF915A
:100C2000CF911F910F91FF90EF900895F62E0B8DAD
:100C300010E00F5F1F4F0F731127E02E8C8D8E1168
:100C40000BC00FB607FCFACFE889F989808185FFD0
:100C5000F5CFCE0183DFF2CFEB8DEC0FFD2FF11D31
:100C6000E35AFF4FF0829FB7F8940B8FEA89FB8914
:100C700080818062D0CFCF92DF92EF92FF921F935C
:100C8000CF93DF93EC016A017B01122FE889F98988
:100C900082E08083C11481EED806E104F10499F06A
:100CA00060E079E08DE390E0A7019601F5D0215056
:100CB00031094109510956954795379527952115D1
:100CC00080E1380790F0E889F989108260E874E8DB
:100CD0008EE190E0A7019601DFD021503109410952
:100CE00051095695479537952795EC85FD853083B5
:100CF000EE85FF852083188EEC89FD891083EA89B3
:100D0000FB89808180618083EA89FB89808188609A
:100D10008083EA89FB89808180688083EA89FB89F6
:100D200080818F7D8083DF91CF911F91FF90EF9025
:100D3000DF90CF9008951F920F920FB60F9211245B
:100D40002F938F939F93EF93FF93E0914301F09143
:100D500044018081E0914901F0914A0182FD1BC06C
:100D6000908180914C018F5F8F7320914D0182178C
:100D700041F0E0914C01F0E0ED5CFE4F958F8093E7
:100D80004C01FF91EF919F918F912F910F900FBE8A
:100D90000F901F9018958081F4CF1F920F920FB67D
:100DA0000F9211242F933F934F935F936F937F93F1
:100DB0008F939F93AF93BF93EF93FF9383E391E060
:100DC000CDDEFF91EF91BF91AF919F918F917F9178
:100DD0006F915F914F913F912F910F900FBE0F90A8
:100DE0001F901895E3E3F1E01382128288EE93E0FE
:100DF000A0E0B0E084839583A683B7838EE091E082
:100E00009183808385EC90E09587848784EC90E0E3
:100E10009787868780EC90E0918B808B81EC90E0C7
:100E2000938B828B82EC90E0958B848B86EC90E0A8
:100E3000978B868B118E128E138E148E0895AF921F
:100E4000BF92CF92DF92EF92FF920F931F93CF93B7
:100E5000DF936C017B018B01040F151FEB015E0119
:100E6000AE18BF08C017D10759F06991D601ED91AE
:100E7000FC910190F081E02DC6010995892B79F74D
:100E8000C501DF91CF911F910F91FF90EF90DF90FF
:100E9000CF90BF90AF900895A1E21A2EAA1BBB1B62
:100EA000FD010DC0AA1FBB1FEE1FFF1FA217B30736
:100EB000E407F50720F0A21BB30BE40BF50B661F4C
:100EC000771F881F991F1A9469F760957095809510
:100ED00090959B01AC01BD01CF010895EE0FFF1F5E
:0C0EE0000590F491E02D0994F894FFCFE8
:100EEC000000803F0000803F250100000000EF055E
:0C0EFC001F079F05D00571058B057D05C3
:00000001FF
