:100000005CC000007FC000007DC000007BC000001D
:1000100079C0000077C0000075C0000073C0000008
:1000200071C000006FC000006DC000006BC0000018
:1000300069C000000DC1000065C0000063C0000081
:1000400077C300005FC00000B4C50000E4C5000035
:1000500059C0000057C0000055C0000053C0000048
:1000600051C000004FC00000000000080002010065
:100070000003040700000000000000000102040863
:100080001020408001020408102001020408102002
:10009000040404040404040402020202020203032E
:1000A0000303030300000000250028002B000000CC
:1000B0000000240027002A00300611241FBECFEFC5
:1000C000D8E0DEBFCDBF11E0A0E0B1E0E8E6FDE0A2
:1000D00002C005900D92A431B107D9F721E0A4E147
:1000E000B1E001C01D92AD3CB207E1F710E0CDE5F3
:1000F000D0E003C02197FE012FD6CC35D107D1F730
:1001000009D130C67DCF611101C0C0C36130E9F3B0
:1001100062E0FBCF662311F061E0F4C360E0FDCF45
:10012000CF92DF92EF92FF926B017C019F7720E0EC
:1001300030E040E859E59DD187FF26C020E030E05F
:1001400040E05FE3C701B6018CD287FD0CC020E020
:1001500030E040E05FE3C701B60114D1FF90EF90BB
:10016000DF90CF90B6C120E030E040E05FEBC70108
:10017000B60177D218167CF420E030E0A901C7015F
:10018000B60173D26B017C01C701B601FF90EF90FD
:10019000DF90CF90089520E030E040E05FE3C701BA
:1001A000B601EFD0FF90EF90DF90CF904FC1CF928C
:1001B000DF92EF92FF92609116017091170180918A
:1001C000180190911901ACDF6B017C0120E030E057
:1001D00040E853E44ED16FEF87FF0CC020E030E0E1
:1001E000A901C701B6013DD260E087FD03C0C70188
:1001F000B60143D18DE0FF90EF90DF90CF908ACF92
:10020000CF93DF93C3ECD1E0188281E090E0A0E0CF
:10021000B0E089839A83AB83BC8361E08DE073DFB8
:1002200081E08D83DF91CF9108958091C301811189
:1002300003C081E08093C301089540E855E260E087
:1002400070E090E080E000C026E086E291E051C4DA
:100250001F920F920FB60F9211242F933F934F933B
:100260005F936F937F938F939F93AF93BF93EF931E
:10027000FF938BEC93EF909385008093840032D0B2
:10028000FF91EF91BF91AF919F918F917F916F916E
:100290005F914F913F912F910F900FBE0F901F9044
:1002A00018958BEC93EF9093850080938400AFE6D4
:1002B000B0E08C918E7F8C93E0E8F0E080818C7FC1
:1002C0008083E1E8F0E08081877E808380818560A3
:1002D000808380818D7F80838C9181608C93089551
:1002E00081E0089580911A0191E0980F90931A018E
:1002F000882349F021E030E030931C0120931B015A
:1003000080931A010895789452DFF89480911A012D
:100310008150F6CFCF93DF931092CC011092CB0196
:1003200051D28BDFC0910001D09101011982188256
:1003300067DFF894B6DF81E028813981232B09F04B
:1003400080E08093CB01789478948091CB018111E7
:1003500007C06BDFF89490E080E0DF91CF910895C3
:1003600081E028813981232B09F480E08093CC013E
:100370009091CC0181E0911180E08093CB01B0DFBE
:10038000E4CF5058BB27AA270ED01AC10BD130F0AA
:1003900010D120F031F49F3F11F41EF400C10EF48F
:1003A000E095E7FBCDC0E92F1CD180F3BA176207B7
:1003B00073078407950718F071F49EF54BC10EF48E
:1003C000E0950B2EBA2FA02D0B01B90190010C0165
:1003D000CA01A0011124FF27591B99F0593F50F47D
:1003E000503E68F11A16F040A22F232F342F4427D5
:1003F000585FF3CF469537952795A795F0405395CD
:10040000C9F77EF41F16BA0B620B730B840BBAF09C
:100410009150A1F0FF0FBB1F661F771F881FC2F707
:100420000EC0BA0F621F731F841F48F4879577951B
:100430006795B795F7959E3F08F0B3CF9395880FD2
:1004400008F09927EE0F979587950895ECD080F0E6
:100450009F3740F491110EF4FEC060E070E080E838
:100460009FE3089526F01B16611D711D811D6EC04E
:1004700088C042D008F481E00895BBD088F09F572F
:1004800090F0B92F9927B751A0F0D1F0660F771FE0
:10049000881F991F1AF0BA95C9F712C0B13081F0C0
:1004A000D9D0B1E00895D6C0672F782F8827B85FDC
:1004B00039F0B93FCCF3869577956795B395D9F721
:1004C0003EF490958095709561957F4F8F4F9F4F2B
:1004D0000895A9D080F09F3740F491110EF0BBC071
:1004E00060E070E080E89FEB089526F41B16611D24
:1004F000711D811D2BC045C0990F0008550FAA0B17
:10050000E0E8FEEF16161706E807F907C0F0121626
:100510001306E407F50798F0621B730B840B950B29
:1005200039F40A2661F0232B242B252B21F408957E
:100530000A2609F4A140A6958FEF811D811D08951B
:1005400097F99F6780E870E060E00895882371F470
:10055000772321F09850872B762F07C0662311F45C
:1005600099270DC09051862B70E060E02AF09A9593
:10057000660F771F881FDAF7880F9695879597F98A
:1005800008959F3F31F0915020F4879577956795B6
:10059000B795880F911D9695879597F908959FEFC8
:1005A00080EC089500240A9416161706180609060A
:1005B000089500240A9412161306140605060895D9
:1005C000092E0394000C11F4882352F0BB0F40F461
:1005D000BF2B11F460FF04C06F5F7F4F8F4F9F4FA1
:1005E000089557FD9058440F551F59F05F3F71F023
:1005F0004795880F97FB991F61F09F3F79F087958A
:100600000895121613061406551FF2CF4695F1DF12
:1006100008C0161617061806991FF1CF86957105A2
:10062000610508940895E5DFA0F0BEE7B91788F4E6
:10063000BB279F3860F41616B11D672F782F8827C7
:10064000985FF7CF869577956795B11D9395963905
:10065000C8F30895E894BB2766277727CB0197F95D
:1006600008954ADF08F48FEF08950BD0A9CF9ADFE1
:1006700028F09FDF18F0952309F062CF90CF112466
:10068000EACFAFDFA0F3959FD1F3950F50E0551F50
:10069000629FF001729FBB27F00DB11D639FAA27D7
:1006A000F00DB11DAA1F649F6627B00DA11D661F26
:1006B000829F2227B00DA11D621F739FB00DA11D47
:1006C000621F839FA00D611D221F749F3327A00D01
:1006D000611D231F849F600D211D822F762F6A2F9D
:1006E00011249F5750408AF0E1F088234AF0EE0F22
:1006F000FF1FBB1F661F771F881F91505040A9F72F
:100700009E3F510570F01CCFA6CF5F3FECF3983EA3
:10071000DCF3869577956795B795F795E7959F5F95
:10072000C1F7FE2B880F911D9695879597F908952F
:100730001F920F920FB60F9211242F933F938F9316
:100740009F93AF93BF9380911E0190911F01A09141
:100750002001B091210130911D0123E0230F2D379D
:1007600058F50196A11DB11D20931D0180931E0116
:1007700090931F01A0932001B09321018091220149
:1007800090912301A0912401B09125010196A11D12
:10079000B11D8093220190932301A0932401B09373
:1007A0002501BF91AF919F918F913F912F910F9014
:1007B0000FBE0F901F90189526E8230F0296A11DDB
:1007C000B11DD2CF789484B5826084BD84B5816038
:1007D00084BD85B5826085BD85B5816085BDEEE649
:1007E000F0E0808181608083E1E8F0E01082808128
:1007F00082608083808181608083E0E8F0E0808196
:1008000081608083E1EBF0E0808184608083E0EBB5
:10081000F0E0808181608083EAE7F0E0808184609D
:1008200080838081826080838081816080838081F9
:10083000806880831092C1000895833081F028F48D
:10084000813099F08230A9F008958730A9F088307E
:10085000C9F08430B1F4809180008F7D03C0809115
:1008600080008F7780938000089584B58F7784BD52
:10087000089584B58F7DFBCF8091B0008F778093F2
:10088000B00008958091B0008F7DF9CFCF93DF93B2
:1008900090E0FC01E458FF4F249180579F4FFC01EA
:1008A00084918823C9F090E0880F991FFC01E255DC
:1008B000FF4FA591B491FC01EC55FF4FC591D49128
:1008C00061110DC09FB7F8948C91209582238C9371
:1008D0008881282328839FBFDF91CF9108956230BC
:1008E00051F49FB7F8943C91822F809583238C9389
:1008F000E8812E2BEFCF8FB7F894EC912E2B2C9311
:100900008FBFEACF1F93CF93DF93282F30E0F901F9
:10091000E859FF4F8491F901E458FF4FD491F90150
:10092000E057FF4FC491CC23A1F0162F811185DF32
:10093000EC2FF0E0EE0FFF1FEC55FF4FA591B491A7
:100940008FB7F894EC91111108C0D095DE23DC9399
:100950008FBFDF91CF911F910895DE2BF8CFFC015F
:10096000918D228D892F90E0805C9F4F821B910991
:100970008F7399270895FC01918D828D981731F01E
:10098000828DE80FF11D858D90E008958FEF9FEF28
:100990000895FC01918D828D981761F0A28DAE0FA4
:1009A000BF2FB11D5D968C91928D9F5F9F73928F2B
:1009B00090E008958FEF9FEF0895FC01538D448DD3
:1009C000252F30E0842F90E0821B930B541710F0FA
:1009D000CF96089501970895FC01A48DA80FB92F13
:1009E000B11DA35ABF4F2C91848D90E001968F7357
:1009F0009927848FA689B7892C93A089B1898C9176
:100A0000837080648C93938D848D981306C00288C4
:100A1000F389E02D80818F7D80830895CF93DF93CC
:100A2000EC01888D8823B1F0AA89BB89E889F9890E
:100A30008C9185FD03C0808186FD0CC00FB607FC3C
:100A4000F7CF8C9185FFF2CF808185FFEDCFCE016E
:100A5000C3DFEACFDF91CF910895EF92FF920F931A
:100A60001F93CF93DF93EC0181E0888F9B8D8C8D5A
:100A700098131AC0E889F989808185FF15C09FB74E
:100A8000F894EE89FF896083E889F9898081837011
:100A9000806480839FBF81E090E0DF91CF911F91C0
:100AA0000F91FF90EF900895F62E0B8D10E00F5FE1
:100AB0001F4F0F731127E02E8C8D8E110BC00FB6B8
:100AC00007FCFACFE889F989808185FFF5CFCE014F
:100AD00083DFF2CFEB8DEC0FFD2FF11DE35AFF4FBB
:100AE000F0829FB7F8940B8FEA89FB89808180623E
:100AF000D0CFCF92DF92EF92FF921F93CF93DF93ED
:100B0000EC016A017B01122FE889F98982E0808378
:100B1000C11481EED806E104F10499F060E079E0B7
:100B20008DE390E0A7019601F5D0215031094109EC
:100B300051095695479537952795211580E1380736
:100B400090F0E889F989108260E874E88EE190E01D
:100B5000A7019601DFD0215031094109510956956D
:100B6000479537952795EC85FD853083EE85FF8584
:100B70002083188EEC89FD891083EA89FB898081A6
:100B800080618083EA89FB89808188608083EA892B
:100B9000FB89808180688083EA89FB8980818F7DE1
:100BA0008083DF91CF911F91FF90EF90DF90CF90E6
:100BB00008951F920F920FB60F9211242F938F93C7
:100BC0009F93EF93FF93E0913601F091370180817D
:100BD000E0913C01F0913D0182FD1BC0908180912C
:100BE0003F018F5F8F7320914001821741F0E091A8
:100BF0003F01F0E0EA5DFE4F958F80933F01FF914A
:100C0000EF919F918F912F910F900FBE0F901F909A
:100C100018958081F4CF1F920F920FB60F92112476
:100C20002F933F934F935F936F937F938F939F93F4
:100C3000AF93BF93EF93FF9386E291E0CDDEFF91F8
:100C4000EF91BF91AF919F918F917F916F915F9144
:100C50004F913F912F910F900FBE0F901F901895BD
:100C6000E6E2F1E01382128288EE93E0A0E0B0E0C9
:100C700084839583A683B78386E091E09183808304
:100C800085EC90E09587848784EC90E09787868751
:100C900080EC90E0918B808B81EC90E0938B828B49
:100CA00082EC90E0958B848B86EC90E0978B868B22
:100CB000118E128E138E148E0895AF92BF92CF9222
:100CC000DF92EF92FF920F931F93CF93DF936C010C
:100CD0007B018B01040F151FEB015E01AE18BF08ED
:100CE000C017D10759F06991D601ED91FC9101909F
:100CF000F081E02DC6010995892B79F7C501DF91B7
:100D0000CF911F910F91FF90EF90DF90CF90BF9008
:100D1000AF900895A1E21A2EAA1BBB1BFD010DC0C6
:100D2000AA1FBB1FEE1FFF1FA217B307E407F5079B
:100D300020F0A21BB30BE40BF50B661F771F881F77
:100D4000991F1A9469F760957095809590959B010D
:100D5000AC01BD01CF010895EE0FFF1F0590F49186
:080D6000E02D0994F894FFCF87
:100D68001401000000002D055D06DD040E05AF042A
:040D7800C904BB04EB
:00000001FF
